:020000020000FC
:040000000C9431002B
:040010000C94D80470
:100040000C94B1060FEF0DBF18E01EBF3F065B4FCB
:10005000666D7D077F6F1F1C1F1E1F1E1F1F1E1F2B
:100060001E1F00E00093C1000FEF0AB900E00BB9BA
:100070000FEF04B900EF07B90FE008B950E0F0E066
:10008000ECE4E50F54910FE000936C0002E0009364
:1000900068000E94A906789422273327442700E0AD
:1000A0000093210105E00093220109E00093230160
:1000B00005E00093240103E00093250102E0009392
:1000C000260100270093270102E00093510101E07F
:1000D0000093520101E00093530103E000935401A7
:1000E000222433244424662477240093310100938E
:1000F00032010093330100933401009361010093B6
:100100006201009363010093640100934101009335
:1001100042010093430100934401203011F121304A
:1001200011F1223011F1233049F1243071F12530E1
:1001300089F1263089F1273089F12830C1F1293041
:10014000D9F12A30D9F12B30D9F12C30D9F12D3019
:10015000D9F12E30D9F12F30D9F12031D9F1213117
:10016000D9F10C94EE000C94360100270093320173
:1001700000933301009334010C947C010027009319
:100180003301009334010C94900100270093340153
:100190000C94A4010C94B8010C94CC01002700939A
:1001A000620100936301009364010C941202002722
:1001B000009364010C9426020C943A020C944E02B3
:1001C0000C9462020C9488020C949C020C94B00271
:1001D0000C94C4020C94D8020C94EE020E941504F4
:1001E0000E94C5030E940304609123010E94080439
:1001F00002E005B96BB90E940304609124010E94DA
:10020000080401E005B96BB90E940304609125015F
:100210000E94080400E205B96BB90E9403046091D2
:1002200026010E940804449800E105B96BB90E94B8
:10023000030400E0449A05B966E76BB9323389F0EC
:10024000333679F0343689F433274F9A6627609134
:1002500021016395609321016A3029F066270C948F
:100260008D004F9A5ACF0C94590357CF0E94C50363
:100270000E940304609151010E94080402E005B944
:100280006BB90E940304609152010E94080401E0CE
:1002900005B96BB90E940304609153010E940804E0
:1002A00000E205B96BB90E940304609154010E94F9
:1002B0000804449800E105B96BB90E94030400E00A
:1002C000449A05B961E76BB9323389F0333679F076
:1002D000343689F433274F9A66276091210163955C
:1002E000609321016A3029F066270C948D004F9AA3
:1002F00014CF0C94590311CF0E949B03343661F440
:1003000033276627609121016395609321016A304C
:1003100029F066270C948D000C948D000C945903E1
:100320000E949B03343661F43327662760912101D4
:100330006395609321016A3029F066270C948D0043
:100340000C948D000C9459030E949B03343661F485
:1003500033276627609121016395609321016A30FC
:1003600029F066270C948D000C948D000C94590391
:100370000E949B03343661F4332766276091210184
:100380006395609321016A3029F066270C948D00F3
:100390000C948D000C94590327E060913101009179
:1003A0003201602B00913301602B00913401602BEE
:1003B0006030A1F160913301643010F40E94ED01CE
:1003C00060913401623011F00E94ED016627609364
:1003D0003301609334010E94ED016091310160931B
:1003E0002301609132016093240160913301609395
:1003F0002501609134016093260166270E949B03CA
:10040000343661F433276627609121016395609348
:1004100021016A3029F066270C948D000C948D0020
:100420000C9459030E94D903343661F433276627AC
:10043000609121016395609321016A3029F066275C
:100440000C948D000C948D000C9459030E94D903D8
:10045000343661F4332766276091210163956093F8
:1004600021016A3029F066270C948D000C948D00D0
:100470000C9459030E94D903343661F4332766275C
:10048000609121016395609321016A3029F066270C
:100490000C948D000C948D000C9459030E94D90388
:1004A000343661F4332766276091210163956093A8
:1004B00021016A3029F066270C948D000C948D0080
:1004C0000C9459032CE0609161016093510160919B
:1004D00062016093520160916301609353016091E6
:1004E00064016093540166270E94D903343661F495
:1004F00033276627609121016395609321016A305B
:1005000029F066270C948D000C948D000C945903EF
:100510000E94A604343661F43327662760912101D6
:100520006395609321016A3029F066270C948D0051
:100530000C948D000C9459030E94A604343661F487
:1005400033276627609121016395609321016A300A
:1005500029F066270C948D000C948D000C9459039F
:100560000E94A604343661F4332766276091210186
:100570006395609321016A3029F066270C948D0001
:100580000C948D000C9459030E94A604343661F437
:1005900033276627609121016395609321016A30BA
:1005A00029F066270C948D000C948D000C9459034F
:1005B00021E166270E949B03343661F433276627C6
:1005C000609121016395609321016A3029F06627CB
:1005D0000C948D000C948D000C9459030E94C5035B
:1005E0000E940304609123010E94080402E005B9FF
:1005F0006BB90E940304609124010E94080401E089
:1006000005B96BB90E940304609125010E9408049A
:1006100000E205B96BB90E940304609126010E94B3
:10062000080400E105B96BB90E94030400E0449896
:1006300005B967E76BB9449A3233A9F1333699F1BA
:100640003436A9F533274F9A6627609121016395C7
:10065000609321016A3049F16627002760914101CA
:100660000091230160130C948D0066270027609190
:1006700042010091240160130C948D00662700272D
:10068000609143010091250160130C948D00662751
:100690000027609144010091260160130C948D00A5
:1006A000459A0C948D004F9A38CD0C9459030C94B4
:1006B0008D0060E060932101609122016395609359
:1006C0002201663009F029CD60E06093220160913B
:1006D00023016395609323016A3009F01ECD60E029
:1006E0006093230160912401639560932401663037
:1006F00009F013CD60E060932401609125016395BA
:10070000609325016A3019F0643051F006CD60E045
:100710006093250160912601639560932601FDCCCD
:100720006091260161FFF9CC60E06093250160E0F3
:1007300060932601F2CC0E94C5030E9403046091DD
:1007400031010E94080402E005B96BB90E9403045C
:10075000609132010E94080401E005B96BB90E9462
:100760000304609133010E94080400E205B96BB9EB
:100770000E940304609134010E94080400E105B95D
:100780006BB90E940D044F9A089566270E940304D6
:10079000609121010E94080408E005B96BB90E942C
:1007A0000304609122010E94080404E005B96BB9BA
:1007B00008950E94C5030E940304609161010E9494
:1007C000080402E005B96BB90E940304609162015C
:1007D0000E94080401E005B96BB90E94030460910E
:1007E00063010E94080400E205B96BB90E9403048A
:1007F000609164010E94080400E105B96BB90E9490
:100800000D044F9A0895002705B90BB9449808952F
:10081000F0E0ECE4E60F64910895002705B90BB908
:1008200000E005B96DE66BB9089500276627609171
:100830002101060F662760912201060F662760914D
:100840002301060F662760912401060F6627609139
:100850002501060F662760912601060F003009F07A
:1008600008958827662760915201613011F0603049
:1008700029F0662760910A00862F00C066276091E4
:100880005101860F9927662760915401603091F0DD
:10089000613021F0623031F0633041F066276AE068
:1008A000962F08C0662764E1962F04C066276EE184
:1008B000962F00C0662760915301960F8A95E6E552
:1008C000F0E0E80F5491792F751751F5662760E035
:1008D00060935401662761E0609353018395662716
:1008E000682F1127362E1AE05524311A12F053942E
:1008F000FCCF352C162F1519612F6A956A956093D8
:100900005101309252016627609352016093540165
:10091000662761E060935101609353018827FDCB06
:1009200033241127552493956627692F362E1AE014
:100930005524311A12F05394FCCF352C162F15196B
:10094000612F6093530130925401E9CF0E94C50397
:100950000E940304609141010E94080402E005B96D
:100960006BB90E940304609142010E94080401E0F7
:1009700005B96BB90E940304609143010E94080409
:1009800000E205B96BB90E940304609144010E9422
:10099000080400E105B96BB90027449805B90BB903
:1009A00000E005B967E76BB966274F9A449A089546
:1009B0000F930FB70F932030E1F02130D9F02230A0
:1009C000D1F02330C9F02430C1F02530B9F0273000
:1009D000B1F02830A9F02930A1F02A3099F02C305C
:1009E00091F02D3089F02E3081F02F3079F02131C7
:1009F00071F00EC019C024C042C061C07FC09DC04C
:100A0000BBC0DAC0F8C016C134C152C170C18EC1BA
:100A100006B101FF000002FF000000FF442700FFB5
:100A200021E003FF000090C106B101FF000002FFBA
:100A3000000000FF442700FF22E003FF20E084C104
:100A400040933101403061F006B102FF4A9501FF49
:100A500043954A3011F00C94360540E00C9436056D
:100A600006B102FF49E000FF439500C000FF4427A4
:100A700000FF23E003FF442703FF21E065C140930B
:100A8000320106B1403061F006B102FF4A9501FF24
:100A90004395463011F00C94560540E00C945605F1
:100AA00006B102FF45E000FF439500C000FF442768
:100AB00000FF24E003FF442703FF22E045C14093E9
:100AC0003301403061F006B102FF4A9501FF4395C2
:100AD0004A3011F00C94750540E00C94750506B190
:100AE00001FF49E000FF439500C000FF442700FFDD
:100AF00025E003FF442703FF23E026C14093340190
:100B0000403061F006B102FF4A9501FF43954A303B
:100B100011F00C94940540E00C94940506B101FF8B
:100B200049E000FF439500C000FF442700FF26E096
:100B300003FF442703FF24E007C1409361014030D5
:100B400061F006B102FF4A9501FF43954A3011F06A
:100B50000C94B30540E00C94B30506B102FF49E0E4
:100B600000FF439500C000FF442700FF28E003FF7B
:100B7000442703FF25E0E8C04093620106B14030FE
:100B800061F006B102FF4A9501FF4395423011F032
:100B90000C94D30540E00C94D30506B102FF41E06C
:100BA00000FF439500C000FF442700FF29E003FF3A
:100BB000442703FF27E0C8C040936301403061F041
:100BC00006B102FF4A9501FF43954A3011F00C949B
:100BD000F20540E00C94F20506B101FF49E000FF88
:100BE000439500C000FF442700FF2AE003FF44278D
:100BF00003FF28E0A9C040936401403061F006B1D2
:100C000002FF4A9501FF4395443011F00C94110600
:100C100040E00C94110606B101FF43E000FF43954C
:100C200000C000FF442700FF2BE003FF442703FF21
:100C300029E08AC040934101403061F006B102FFD3
:100C40004A9501FF43954A3011F00C94300640E07C
:100C50000C94300606B101FF49E000FF439500C047
:100C600000FF442700FF2DE003FF442703FF2AE095
:100C70006BC040934201403061F006B102FF4A95DB
:100C800001FF4395463011F00C944F0640E00C9460
:100C90004F0606B101FF45E000FF439500C000FF8D
:100CA000442700FF2EE003FF442703FF2CE04CC045
:100CB00040934301403061F006B102FF4A9501FFC5
:100CC00043954A3011F00C946E0640E00C946E0689
:100CD00006B101FF49E000FF439500C000FF442733
:100CE00000FF2FE003FF442703FF2DE02DC04093BA
:100CF0004401403061F006B102FF4A9501FF43957F
:100D0000433011F00C948D0640E00C948D0606B132
:100D100001FF42E000FF439500C000FF442700FFB1
:100D200020E103FF442703FF2EE00EC006B101FFC0
:100D3000000002FF000000FF442700FF20E000FF4A
:100D4000459803FF2FE000C0D99A0F910FBF0F9174
:100D5000189505E005BD03E606BD01E000936E00B1
:0C0D6000089503E606BDA89A3395189587
:00000001FF
