:020000020000FC
:040000000C942B0031
:040010000C94330217
:100040000C94DB020FEF0DBF18E01EBF3F065B4FA5
:10005000666D7D077F6F00E00093C1000FEF0AB966
:1000600000E00BB90FEF04B900EF07B90FE008B9D2
:1000700050E0F0E0ECE4E50F54910FE000936C00E9
:1000800002E0009368000E94D3027894222733276D
:10009000442700E00093210105E00093220109E0DC
:1000A0000093230105E00093240103E00093250160
:1000B00002E00093260100270093270100933101FD
:1000C0000093320100933301009334010093410106
:1000D000009342010093430100934401203051F00A
:1000E000213051F0223089F02330B1F02430C9F0B2
:1000F0002530C9F00C94950000270093320100933D
:100100003301009334010C94DB000027009333018A
:10011000009334010C94EF000027009334010C94F9
:1001200003010C9417010C942B010E94DD010E9425
:10013000F101609123010E94F60102E005B96BB95B
:100140000E94F101609124010E94F60101E005B9CD
:100150006BB90E94F101609125010E94F60100E255
:1001600005B96BB90E94F101609126010E94F60168
:10017000449800E105B96BB90E94F10100E0449A8E
:1001800005B966E76BB9323389F0333679F0343626
:1001900089F433274F9A6627609121016395609314
:1001A00021016A3029F066270C946E004F9A96CF91
:1001B0000C94710193CF0E94B301343661F433275C
:1001C0006627609121016395609321016A3029F0CF
:1001D00066270C946E000C946E000C9471010E94C2
:1001E000B301343661F433276627609121016395AA
:1001F000609321016A3029F066270C946E000C94FC
:100200006E000C9471010E94B301343661F43327FF
:100210006627609121016395609321016A3029F07E
:1002200066270C946E000C946E000C9471010E9471
:10023000B301343661F43327662760912101639559
:10024000609321016A3029F066270C946E000C94AB
:100250006E000C94710120E0609131010091320137
:10026000602B00913301602B00913401602B6030D2
:10027000A1F160913301643010F40E944C0160914F
:100280003401623011F00E944C0166276093330103
:10029000609334010E944C0160913101609323010D
:1002A00060913201609324016091330160932501D4
:1002B000609134016093260166270E94B3013436B1
:1002C00061F43327662760912101639560932101D2
:1002D0006A3029F066270C946E000C946E000C9422
:1002E000710160E060932101609122016395609348
:1002F0002201663009F0F2CE60E060932201609145
:1003000023016395609323016A3009F0E7CE60E032
:10031000609323016091240163956093240166300A
:1003200009F0DCCE60E060932401609125016395C3
:10033000609325016A3019F0643051F0CFCE60E04F
:100340006093250160912601639560932601C6CED6
:100350006091260161FFC2CE60E06093250160E0FC
:1003600060932601BBCE0E94DD010E94F1016091E5
:1003700031010E94F60102E005B96BB90E94F1015A
:10038000609132010E94F60101E005B96BB90E944B
:10039000F101609133010E94F60100E205B96BB9E9
:1003A0000E94F101609134010E94F60100E105B95B
:1003B0006BB90E94FB014F9A089566270E94F101D4
:1003C000609121010E94F60108E005B96BB90E9415
:1003D000F101609122010E94F60104E005B96BB9B8
:1003E0000895002705B90BB944980895F0E0ECE4AE
:1003F000E60F64910895002705B90BB900E005B92F
:100400006DE66BB908950E94DD010E94F1016091D3
:1004100041010E94F60100E205B96BB90E94F101A9
:10042000609142010E94F60100E105B96BB90E949A
:10043000F101609143010E94F60101E005B96BB939
:100440000E94F101609144010E94F60102E005B9A9
:100450006BB9002705B90BB900E005B967E76BB9BF
:1004600066274F9A08950F930FB70F93203041F0EE
:10047000213039F0223031F0233029F0243021F0BE
:1004800004C00FC02DC04CC06AC006B101FF0000FF
:1004900002FF000000FF442700FF21E003FF0000EF
:1004A0007DC040933101403061F006B102FF4A95B2
:1004B00001FF43954A3011F00C94670240E00C9420
:1004C000670206B102FF49E000FF439500C000FF4C
:1004D000442700FF22E003FF442703FF20E05EC023
:1004E0004093320106B1403061F006B102FF4A95F7
:1004F00001FF4395463011F00C94870240E00C94C4
:10050000870206B102FF45E000FF439500C000FFEF
:10051000442700FF23E003FF442703FF21E03EC000
:1005200040933301403061F006B102FF4A9501FF6C
:1005300043954A3011F00C94A60240E00C94A602B8
:1005400006B101FF49E000FF439500C000FF4427CA
:1005500000FF24E003FF442703FF22E01FC0409375
:100560003401403061F006B102FF4A9501FF439526
:100570004A3011F00C94C50240E00C94C50206B15B
:1005800001FF49E000FF439500C000FF442700FF42
:1005900025E003FF442703FF23E000C0D99A0F9111
:1005A0000FBF0F91189505E005BD03E606BD01E0FC
:1005B00000936E00089503E606BDA89A339518953A
:00000001FF
